{
  "_format": "hh-sol-artifact-1",
  "contractName": "ERC1155Openzeppelin",
  "sourceName": "contracts/tokens/ERC1155Openzeppelin.sol",
  "abi": [
    {
      "inputs": [
        {
          "internalType": "string",
          "name": "_name",
          "type": "string"
        },
        {
          "internalType": "string",
          "name": "_symbol",
          "type": "string"
        }
      ],
      "stateMutability": "nonpayable",
      "type": "constructor"
    },
    {
      "anonymous": false,
      "inputs": [
        {
          "indexed": false,
          "internalType": "address",
          "name": "collection",
          "type": "address"
        },
        {
          "indexed": false,
          "internalType": "uint256",
          "name": "assetId",
          "type": "uint256"
        },
        {
          "indexed": false,
          "internalType": "address",
          "name": "rightHolder",
          "type": "address"
        },
        {
          "indexed": false,
          "internalType": "uint256",
          "name": "percent",
          "type": "uint256"
        }
      ],
      "name": "AddLoyalty",
      "type": "event"
    },
    {
      "anonymous": false,
      "inputs": [
        {
          "indexed": true,
          "internalType": "address",
          "name": "account",
          "type": "address"
        },
        {
          "indexed": true,
          "internalType": "address",
          "name": "operator",
          "type": "address"
        },
        {
          "indexed": false,
          "internalType": "bool",
          "name": "approved",
          "type": "bool"
        }
      ],
      "name": "ApprovalForAll",
      "type": "event"
    },
    {
      "anonymous": false,
      "inputs": [
        {
          "indexed": true,
          "internalType": "address",
          "name": "previousOwner",
          "type": "address"
        },
        {
          "indexed": true,
          "internalType": "address",
          "name": "newOwner",
          "type": "address"
        }
      ],
      "name": "OwnershipTransferred",
      "type": "event"
    },
    {
      "anonymous": false,
      "inputs": [
        {
          "indexed": true,
          "internalType": "address",
          "name": "operator",
          "type": "address"
        },
        {
          "indexed": true,
          "internalType": "address",
          "name": "from",
          "type": "address"
        },
        {
          "indexed": true,
          "internalType": "address",
          "name": "to",
          "type": "address"
        },
        {
          "indexed": false,
          "internalType": "uint256[]",
          "name": "ids",
          "type": "uint256[]"
        },
        {
          "indexed": false,
          "internalType": "uint256[]",
          "name": "values",
          "type": "uint256[]"
        }
      ],
      "name": "TransferBatch",
      "type": "event"
    },
    {
      "anonymous": false,
      "inputs": [
        {
          "indexed": true,
          "internalType": "address",
          "name": "operator",
          "type": "address"
        },
        {
          "indexed": true,
          "internalType": "address",
          "name": "from",
          "type": "address"
        },
        {
          "indexed": true,
          "internalType": "address",
          "name": "to",
          "type": "address"
        },
        {
          "indexed": false,
          "internalType": "uint256",
          "name": "id",
          "type": "uint256"
        },
        {
          "indexed": false,
          "internalType": "uint256",
          "name": "value",
          "type": "uint256"
        }
      ],
      "name": "TransferSingle",
      "type": "event"
    },
    {
      "anonymous": false,
      "inputs": [
        {
          "indexed": false,
          "internalType": "string",
          "name": "value",
          "type": "string"
        },
        {
          "indexed": true,
          "internalType": "uint256",
          "name": "id",
          "type": "uint256"
        }
      ],
      "name": "URI",
      "type": "event"
    },
    {
      "inputs": [],
      "name": "INIT_RESALE",
      "outputs": [
        {
          "internalType": "uint256",
          "name": "",
          "type": "uint256"
        }
      ],
      "stateMutability": "view",
      "type": "function"
    },
    {
      "inputs": [],
      "name": "RESALE_ALLOWED",
      "outputs": [
        {
          "internalType": "uint256",
          "name": "",
          "type": "uint256"
        }
      ],
      "stateMutability": "view",
      "type": "function"
    },
    {
      "inputs": [],
      "name": "RESALE_REJECTED",
      "outputs": [
        {
          "internalType": "uint256",
          "name": "",
          "type": "uint256"
        }
      ],
      "stateMutability": "view",
      "type": "function"
    },
    {
      "inputs": [
        {
          "internalType": "uint256",
          "name": "newItemId",
          "type": "uint256"
        },
        {
          "internalType": "uint256",
          "name": "amount",
          "type": "uint256"
        },
        {
          "internalType": "bytes",
          "name": "data",
          "type": "bytes"
        },
        {
          "internalType": "uint256",
          "name": "loyaltyPercent",
          "type": "uint256"
        },
        {
          "internalType": "uint256",
          "name": "resaleStatus",
          "type": "uint256"
        }
      ],
      "name": "awardItem",
      "outputs": [
        {
          "internalType": "uint256",
          "name": "",
          "type": "uint256"
        }
      ],
      "stateMutability": "nonpayable",
      "type": "function"
    },
    {
      "inputs": [
        {
          "internalType": "address",
          "name": "account",
          "type": "address"
        },
        {
          "internalType": "uint256",
          "name": "id",
          "type": "uint256"
        }
      ],
      "name": "balanceOf",
      "outputs": [
        {
          "internalType": "uint256",
          "name": "",
          "type": "uint256"
        }
      ],
      "stateMutability": "view",
      "type": "function"
    },
    {
      "inputs": [
        {
          "internalType": "address[]",
          "name": "accounts",
          "type": "address[]"
        },
        {
          "internalType": "uint256[]",
          "name": "ids",
          "type": "uint256[]"
        }
      ],
      "name": "balanceOfBatch",
      "outputs": [
        {
          "internalType": "uint256[]",
          "name": "",
          "type": "uint256[]"
        }
      ],
      "stateMutability": "view",
      "type": "function"
    },
    {
      "inputs": [],
      "name": "baseUri",
      "outputs": [
        {
          "internalType": "string",
          "name": "",
          "type": "string"
        }
      ],
      "stateMutability": "view",
      "type": "function"
    },
    {
      "inputs": [
        {
          "internalType": "uint256",
          "name": "assetId",
          "type": "uint256"
        },
        {
          "internalType": "address",
          "name": "seller",
          "type": "address"
        },
        {
          "internalType": "uint256",
          "name": "sellerAmount",
          "type": "uint256"
        }
      ],
      "name": "computeCreatorLoyaltyByAmount",
      "outputs": [
        {
          "internalType": "address",
          "name": "creator",
          "type": "address"
        },
        {
          "internalType": "uint256",
          "name": "creatorBenif",
          "type": "uint256"
        }
      ],
      "stateMutability": "view",
      "type": "function"
    },
    {
      "inputs": [
        {
          "internalType": "uint256",
          "name": "",
          "type": "uint256"
        }
      ],
      "name": "creators",
      "outputs": [
        {
          "internalType": "address",
          "name": "",
          "type": "address"
        }
      ],
      "stateMutability": "view",
      "type": "function"
    },
    {
      "inputs": [],
      "name": "getCurent",
      "outputs": [
        {
          "internalType": "address",
          "name": "",
          "type": "address"
        }
      ],
      "stateMutability": "view",
      "type": "function"
    },
    {
      "inputs": [
        {
          "internalType": "uint256",
          "name": "assetId",
          "type": "uint256"
        },
        {
          "internalType": "address",
          "name": "rightHolder",
          "type": "address"
        }
      ],
      "name": "getLoyalty",
      "outputs": [
        {
          "internalType": "uint256",
          "name": "",
          "type": "uint256"
        }
      ],
      "stateMutability": "view",
      "type": "function"
    },
    {
      "inputs": [
        {
          "internalType": "uint256",
          "name": "assetId",
          "type": "uint256"
        }
      ],
      "name": "getLoyaltyCreator",
      "outputs": [
        {
          "internalType": "address",
          "name": "",
          "type": "address"
        }
      ],
      "stateMutability": "view",
      "type": "function"
    },
    {
      "inputs": [
        {
          "internalType": "uint256",
          "name": "",
          "type": "uint256"
        }
      ],
      "name": "hasLoyalty",
      "outputs": [
        {
          "internalType": "bool",
          "name": "",
          "type": "bool"
        }
      ],
      "stateMutability": "view",
      "type": "function"
    },
    {
      "inputs": [
        {
          "internalType": "address",
          "name": "account",
          "type": "address"
        },
        {
          "internalType": "address",
          "name": "operator",
          "type": "address"
        }
      ],
      "name": "isApprovedForAll",
      "outputs": [
        {
          "internalType": "bool",
          "name": "",
          "type": "bool"
        }
      ],
      "stateMutability": "view",
      "type": "function"
    },
    {
      "inputs": [
        {
          "internalType": "uint256",
          "name": "assetId",
          "type": "uint256"
        }
      ],
      "name": "isInLoyalty",
      "outputs": [
        {
          "internalType": "bool",
          "name": "",
          "type": "bool"
        }
      ],
      "stateMutability": "view",
      "type": "function"
    },
    {
      "inputs": [],
      "name": "isLoyalty",
      "outputs": [
        {
          "internalType": "bool",
          "name": "",
          "type": "bool"
        }
      ],
      "stateMutability": "pure",
      "type": "function"
    },
    {
      "inputs": [
        {
          "internalType": "uint256",
          "name": "assetId",
          "type": "uint256"
        },
        {
          "internalType": "address",
          "name": "currentUser",
          "type": "address"
        }
      ],
      "name": "isResaleAllowed",
      "outputs": [
        {
          "internalType": "bool",
          "name": "",
          "type": "bool"
        }
      ],
      "stateMutability": "view",
      "type": "function"
    },
    {
      "inputs": [
        {
          "internalType": "uint256",
          "name": "",
          "type": "uint256"
        },
        {
          "internalType": "address",
          "name": "",
          "type": "address"
        }
      ],
      "name": "loyalties",
      "outputs": [
        {
          "internalType": "uint256",
          "name": "",
          "type": "uint256"
        }
      ],
      "stateMutability": "view",
      "type": "function"
    },
    {
      "inputs": [],
      "name": "name",
      "outputs": [
        {
          "internalType": "string",
          "name": "",
          "type": "string"
        }
      ],
      "stateMutability": "view",
      "type": "function"
    },
    {
      "inputs": [],
      "name": "owner",
      "outputs": [
        {
          "internalType": "address",
          "name": "",
          "type": "address"
        }
      ],
      "stateMutability": "view",
      "type": "function"
    },
    {
      "inputs": [],
      "name": "renounceOwnership",
      "outputs": [],
      "stateMutability": "nonpayable",
      "type": "function"
    },
    {
      "inputs": [
        {
          "internalType": "uint256",
          "name": "",
          "type": "uint256"
        }
      ],
      "name": "resaleStatuses",
      "outputs": [
        {
          "internalType": "uint256",
          "name": "",
          "type": "uint256"
        }
      ],
      "stateMutability": "view",
      "type": "function"
    },
    {
      "inputs": [
        {
          "internalType": "address",
          "name": "from",
          "type": "address"
        },
        {
          "internalType": "address",
          "name": "to",
          "type": "address"
        },
        {
          "internalType": "uint256[]",
          "name": "ids",
          "type": "uint256[]"
        },
        {
          "internalType": "uint256[]",
          "name": "amounts",
          "type": "uint256[]"
        },
        {
          "internalType": "bytes",
          "name": "data",
          "type": "bytes"
        }
      ],
      "name": "safeBatchTransferFrom",
      "outputs": [],
      "stateMutability": "nonpayable",
      "type": "function"
    },
    {
      "inputs": [
        {
          "internalType": "address",
          "name": "from",
          "type": "address"
        },
        {
          "internalType": "address",
          "name": "to",
          "type": "address"
        },
        {
          "internalType": "uint256",
          "name": "id",
          "type": "uint256"
        },
        {
          "internalType": "uint256",
          "name": "amount",
          "type": "uint256"
        },
        {
          "internalType": "bytes",
          "name": "data",
          "type": "bytes"
        }
      ],
      "name": "safeTransferFrom",
      "outputs": [],
      "stateMutability": "nonpayable",
      "type": "function"
    },
    {
      "inputs": [
        {
          "internalType": "address",
          "name": "operator",
          "type": "address"
        },
        {
          "internalType": "bool",
          "name": "approved",
          "type": "bool"
        }
      ],
      "name": "setApprovalForAll",
      "outputs": [],
      "stateMutability": "nonpayable",
      "type": "function"
    },
    {
      "inputs": [
        {
          "internalType": "string",
          "name": "newUri",
          "type": "string"
        }
      ],
      "name": "setURI",
      "outputs": [
        {
          "internalType": "string",
          "name": "",
          "type": "string"
        }
      ],
      "stateMutability": "nonpayable",
      "type": "function"
    },
    {
      "inputs": [
        {
          "internalType": "bytes4",
          "name": "interfaceId",
          "type": "bytes4"
        }
      ],
      "name": "supportsInterface",
      "outputs": [
        {
          "internalType": "bool",
          "name": "",
          "type": "bool"
        }
      ],
      "stateMutability": "view",
      "type": "function"
    },
    {
      "inputs": [],
      "name": "symbol",
      "outputs": [
        {
          "internalType": "string",
          "name": "",
          "type": "string"
        }
      ],
      "stateMutability": "view",
      "type": "function"
    },
    {
      "inputs": [
        {
          "internalType": "address",
          "name": "newOwner",
          "type": "address"
        }
      ],
      "name": "transferOwnership",
      "outputs": [],
      "stateMutability": "nonpayable",
      "type": "function"
    },
    {
      "inputs": [
        {
          "internalType": "uint256",
          "name": "_tokenid",
          "type": "uint256"
        }
      ],
      "name": "uri",
      "outputs": [
        {
          "internalType": "string",
          "name": "",
          "type": "string"
        }
      ],
      "stateMutability": "view",
      "type": "function"
    }
  ],
  "bytecode": "0x600060085560016009556002600a5560c0604052601060808190526f212aa6262d1021b7b63632b1ba34b7b760811b60a09081526200004291600b9190620001c2565b5060408051808201909152600580825264212aa6262d60d91b60209092019182526200007191600c91620001c2565b506040518060600160405280602d81526020016200288e602d91398051620000a291600d91602090910190620001c2565b50348015620000b057600080fd5b50604051620028bb380380620028bb833981016040819052620000d3916200031b565b6040518060600160405280602881526020016200286660289139620000f88162000153565b506200010d620001076200016c565b62000170565b8151156200012c5781516200012a90600b906020850190620001c2565b505b8051156200014b5780516200014990600c906020840190620001c2565b505b5050620003d5565b805162000168906002906020840190620001c2565b5050565b3390565b600380546001600160a01b038381166001600160a01b0319831681179093556040519116919082907f8be0079c531659141344cd1fd0a4f28419497f9722a3daafe3b4186f6b6457e090600090a35050565b828054620001d09062000382565b90600052602060002090601f016020900481019282620001f457600085556200023f565b82601f106200020f57805160ff19168380011785556200023f565b828001600101855582156200023f579182015b828111156200023f57825182559160200191906001019062000222565b506200024d92915062000251565b5090565b5b808211156200024d576000815560010162000252565b600082601f83011262000279578081fd5b81516001600160401b0380821115620002965762000296620003bf565b604051601f8301601f19908116603f01168101908282118183101715620002c157620002c1620003bf565b81604052838152602092508683858801011115620002dd578485fd5b8491505b83821015620003005785820183015181830184015290820190620002e1565b838211156200031157848385830101525b9695505050505050565b600080604083850312156200032e578182fd5b82516001600160401b038082111562000345578384fd5b620003538683870162000268565b9350602085015191508082111562000369578283fd5b50620003788582860162000268565b9150509250929050565b6002810460018216806200039757607f821691505b60208210811415620003b957634e487b7160e01b600052602260045260246000fd5b50919050565b634e487b7160e01b600052604160045260246000fd5b61248180620003e56000396000f3fe608060405234801561001057600080fd5b50600436106101d95760003560e01c8063715018a611610104578063ac65bcc0116100a2578063cd53d08e11610071578063cd53d08e146103b8578063e985e9c5146103cb578063f242432a146103de578063f2fde38b146103f1576101d9565b8063ac65bcc014610374578063b1846fe814610387578063b3db32351461038f578063b918169e14610397576101d9565b806395d89b41116100de57806395d89b411461033e578063980cb39e146103465780639abc832014610359578063a22cb46514610361576101d9565b8063715018a61461031b57806381047cb1146103235780638da5cb5b14610336576101d9565b806319b6a4311161017c578063302c0c231161014b578063302c0c23146102c0578063374aca22146102d557806349212fcb146102e85780634e1273f4146102fb576101d9565b806319b6a4311461027d57806321bb49d214610290578063241329e2146102a35780632eb2c2d6146102ab576101d9565b806306fdde03116101b857806306fdde03146102475780630e89341c1461024f5780630fb97ae314610262578063145009e014610275576101d9565b8062fdd58e146101de57806301ffc9a71461020757806302fe530514610227575b600080fd5b6101f16101ec366004611831565b610404565b6040516101fe91906121de565b60405180910390f35b61021a610215366004611923565b61045b565b6040516101fe9190611cf8565b61023a61023536600461195b565b6104d5565b6040516101fe9190611d03565b61023a610502565b61023a61025d3660046119a1565b610590565b6101f16102703660046119a1565b6105c4565b6101f16105d6565b61021a61028b3660046119a1565b6105dc565b61021a61029e3660046119a1565b6105e7565b6101f16105fc565b6102be6102b93660046116ee565b610602565b005b6102c8610660565b6040516101fe9190611bc8565b61021a6102e33660046119b9565b610665565b6101f16102f63660046119b9565b610678565b61030e61030936600461185a565b610695565b6040516101fe9190611cc0565b6102be6107b5565b6101f16103313660046119b9565b6107c9565b6102c86107f1565b61023a610800565b6102c86103543660046119a1565b61080d565b61023a610818565b6102be61036f3660046117f7565b610825565b6101f1610382366004611a0f565b61083b565b6101f161086d565b61021a610873565b6103aa6103a53660046119db565b610878565b6040516101fe929190611c7d565b6102c86103c63660046119a1565b610900565b61021a6103d93660046116bc565b61091b565b6102be6103ec366004611794565b610949565b6102be6103ff3660046116a2565b6109a0565b60006001600160a01b0383166104355760405162461bcd60e51b815260040161042c90611e8a565b60405180910390fd5b506000908152602081815260408083206001600160a01b03949094168352929052205490565b60006001600160e01b031982167fd9b67a260000000000000000000000000000000000000000000000000000000014806104be57506001600160e01b031982167f0e89341c00000000000000000000000000000000000000000000000000000000145b806104cd57506104cd826109da565b90505b919050565b60606104df610a0c565b6104e882610a4b565b81516104fb90600d906020850190611503565b5090919050565b600b805461050f906122b3565b80601f016020809104026020016040519081016040528092919081815260200182805461053b906122b3565b80156105885780601f1061055d57610100808354040283529160200191610588565b820191906000526020600020905b81548152906001019060200180831161056b57829003601f168201915b505050505081565b6060600d61059d83610a5e565b6040516020016105ae929190611b1a565b6040516020818303038152906040529050919050565b60076020526000908152604090205481565b60095481565b60006104cd82610bb5565b60066020526000908152604090205460ff1681565b600a5481565b61060a610660565b6001600160a01b0316856001600160a01b031614806106305750610630856103d9610660565b61064c5760405162461bcd60e51b815260040161042c90611d73565b6106598585858585610bca565b5050505050565b335b90565b60006106718383610da9565b9392505050565b600460209081526000928352604080842090915290825290205481565b606081518351146106b85760405162461bcd60e51b815260040161042c906120c7565b6000835167ffffffffffffffff8111156106e257634e487b7160e01b600052604160045260246000fd5b60405190808252806020026020018201604052801561070b578160200160208202803683370190505b50905060005b84518110156107ad5761077285828151811061073d57634e487b7160e01b600052603260045260246000fd5b602002602001015185838151811061076557634e487b7160e01b600052603260045260246000fd5b6020026020010151610404565b82828151811061079257634e487b7160e01b600052603260045260246000fd5b60209081029190910101526107a68161231b565b9050610711565b509392505050565b6107bd610a0c565b6107c76000610dec565b565b60009182526004602090815260408084206001600160a01b0393909316845291905290205490565b6003546001600160a01b031690565b600c805461050f906122b3565b60006104cd82610e4b565b600d805461050f906122b3565b610837610830610660565b8383610e66565b5050565b6000610850610848610660565b878787610f09565b6108638661085c610660565b858561101a565b5093949350505050565b60085481565b600190565b60008061088485610bb5565b156108f15761089285610e4b565b9150836001600160a01b0316826001600160a01b0316146108e85760006108b986846107c9565b905080156108dd576108d660646108d086846110b3565b906110bf565b91506108e2565b600091505b506108ec565b5060005b6108f8565b5060009050805b935093915050565b6005602052600090815260409020546001600160a01b031681565b6001600160a01b03918216600090815260016020908152604080832093909416825291909152205460ff1690565b610951610660565b6001600160a01b0316856001600160a01b031614806109775750610977856103d9610660565b6109935760405162461bcd60e51b815260040161042c90611d73565b61065985858585856110cb565b6109a8610a0c565b6001600160a01b0381166109ce5760405162461bcd60e51b815260040161042c90611e2d565b6109d781610dec565b50565b6001600160e01b031981167f01ffc9a70000000000000000000000000000000000000000000000000000000014919050565b610a14610660565b6001600160a01b0316610a256107f1565b6001600160a01b0316146107c75760405162461bcd60e51b815260040161042c90611fa1565b8051610837906002906020840190611503565b606081610a9f575060408051808201909152600181527f300000000000000000000000000000000000000000000000000000000000000060208201526104d0565b8160005b8115610ac95780610ab38161231b565b9150610ac29050600a8361223d565b9150610aa3565b60008167ffffffffffffffff811115610af257634e487b7160e01b600052604160045260246000fd5b6040519080825280601f01601f191660200182016040528015610b1c576020820181803683370190505b5090505b8415610bad57610b31600183612270565b9150610b3e600a86612336565b610b49906030612225565b60f81b818381518110610b6c57634e487b7160e01b600052603260045260246000fd5b60200101907effffffffffffffffffffffffffffffffffffffffffffffffffffffffffffff1916908160001a905350610ba6600a8661223d565b9450610b20565b949350505050565b60009081526006602052604090205460ff1690565b8151835114610beb5760405162461bcd60e51b815260040161042c90612124565b6001600160a01b038416610c115760405162461bcd60e51b815260040161042c90611ee7565b6000610c1b610660565b9050610c2b818787878787610da1565b60005b8451811015610d2d576000858281518110610c5957634e487b7160e01b600052603260045260246000fd5b602002602001015190506000858381518110610c8557634e487b7160e01b600052603260045260246000fd5b602090810291909101810151600084815280835260408082206001600160a01b038e168352909352919091205490915081811015610cd55760405162461bcd60e51b815260040161042c90611f44565b6000838152602081815260408083206001600160a01b038e8116855292528083208585039055908b16825281208054849290610d12908490612225565b9250508190555050505080610d269061231b565b9050610c2e565b50846001600160a01b0316866001600160a01b0316826001600160a01b03167f4a39dc06d4c0dbc64b70af90fd698a233a518aa5d07e595d983b8c0526c8f7fb8787604051610d7d929190611cd3565b60405180910390a4610d93818787878787610da1565b610da1818787878787611228565b505050505050565b6000828152600560205260408120546001600160a01b03838116911614610de357600a546000848152600760205260409020541415610671565b50600192915050565b600380546001600160a01b0383811673ffffffffffffffffffffffffffffffffffffffff19831681179093556040519116919082907f8be0079c531659141344cd1fd0a4f28419497f9722a3daafe3b4186f6b6457e090600090a35050565b6000908152600560205260409020546001600160a01b031690565b816001600160a01b0316836001600160a01b03161415610e985760405162461bcd60e51b815260040161042c9061206a565b6001600160a01b0383811660008181526001602090815260408083209487168084529490915290819020805460ff1916851515179055517f17307eab39ab6107e8899845ad3d59bd9653f200f220920489ca2b5937696c3190610efc908590611cf8565b60405180910390a3505050565b6001600160a01b038416610f2f5760405162461bcd60e51b815260040161042c90612181565b6000610f39610660565b90506000610f468561134d565b90506000610f538561134d565b9050610f6483600089858589610da1565b6000868152602081815260408083206001600160a01b038b16845290915281208054879290610f94908490612225565b92505081905550866001600160a01b031660006001600160a01b0316846001600160a01b03167fc3d58168c5ae7397731d063d5bbf3d657854427343f4c083240f7aacaa2d0f628989604051610feb9291906121e7565b60405180910390a461100283600089858589610da1565b611011836000898989896113a6565b50505050505050565b600a82111561103b5760405162461bcd60e51b815260040161042c90611fd6565b61104484610bb5565b156110615760405162461bcd60e51b815260040161042c90612033565b6000848152600560209081526040808320805473ffffffffffffffffffffffffffffffffffffffff19166001600160a01b038816179055600790915290208190556110ad848484611477565b50505050565b60006106718284612251565b6000610671828461223d565b6001600160a01b0384166110f15760405162461bcd60e51b815260040161042c90611ee7565b60006110fb610660565b905060006111088561134d565b905060006111158561134d565b9050611125838989858589610da1565b6000868152602081815260408083206001600160a01b038c168452909152902054858110156111665760405162461bcd60e51b815260040161042c90611f44565b6000878152602081815260408083206001600160a01b038d8116855292528083208985039055908a168252812080548892906111a3908490612225565b92505081905550876001600160a01b0316896001600160a01b0316856001600160a01b03167fc3d58168c5ae7397731d063d5bbf3d657854427343f4c083240f7aacaa2d0f628a8a6040516111f99291906121e7565b60405180910390a461120f848a8a86868a610da1565b61121d848a8a8a8a8a6113a6565b505050505050505050565b61123a846001600160a01b03166114f4565b15610da15760405163bc197c8160e01b81526001600160a01b0385169063bc197c81906112739089908990889088908890600401611bdc565b602060405180830381600087803b15801561128d57600080fd5b505af19250505080156112bd575060408051601f3d908101601f191682019092526112ba9181019061193f565b60015b61131d576112c961238c565b806308c379a0141561130357506112de6123a3565b806112e95750611305565b8060405162461bcd60e51b815260040161042c9190611d03565b505b60405162461bcd60e51b815260040161042c90611d16565b6001600160e01b0319811663bc197c8160e01b146110115760405162461bcd60e51b815260040161042c90611dd0565b6040805160018082528183019092526060916000919060208083019080368337019050509050828160008151811061139557634e487b7160e01b600052603260045260246000fd5b602090810291909101015292915050565b6113b8846001600160a01b03166114f4565b15610da15760405163f23a6e6160e01b81526001600160a01b0385169063f23a6e61906113f19089908990889088908890600401611c3a565b602060405180830381600087803b15801561140b57600080fd5b505af192505050801561143b575060408051601f3d908101601f191682019092526114389181019061193f565b60015b611447576112c961238c565b6001600160e01b0319811663f23a6e6160e01b146110115760405162461bcd60e51b815260040161042c90611dd0565b60008381526004602090815260408083206001600160a01b03861684528252808320849055858352600690915290819020805460ff19166001179055517f3a9c7efcff27a8e4e0fa3ad71bb9266a85fb6477fea0c3918eb4d4c3ce61d689906114e7903090869086908690611c96565b60405180910390a1505050565b6001600160a01b03163b151590565b82805461150f906122b3565b90600052602060002090601f0160209004810192826115315760008555611577565b82601f1061154a57805160ff1916838001178555611577565b82800160010185558215611577579182015b8281111561157757825182559160200191906001019061155c565b50611583929150611587565b5090565b5b808211156115835760008155600101611588565b600067ffffffffffffffff8311156115b6576115b6612376565b6040516115cd601f8501601f1916602001826122ee565b8091508381528484840111156115e257600080fd5b83836020830137600060208583010152509392505050565b80356001600160a01b03811681146104d057600080fd5b600082601f830112611621578081fd5b8135602061162e826121f5565b60405161163b82826122ee565b838152828101915085830183850287018401881015611658578586fd5b855b858110156116765781358452928401929084019060010161165a565b5090979650505050505050565b600082601f830112611693578081fd5b6106718383356020850161159c565b6000602082840312156116b3578081fd5b610671826115fa565b600080604083850312156116ce578081fd5b6116d7836115fa565b91506116e5602084016115fa565b90509250929050565b600080600080600060a08688031215611705578081fd5b61170e866115fa565b945061171c602087016115fa565b9350604086013567ffffffffffffffff80821115611738578283fd5b61174489838a01611611565b94506060880135915080821115611759578283fd5b61176589838a01611611565b9350608088013591508082111561177a578283fd5b5061178788828901611683565b9150509295509295909350565b600080600080600060a086880312156117ab578081fd5b6117b4866115fa565b94506117c2602087016115fa565b93506040860135925060608601359150608086013567ffffffffffffffff8111156117eb578182fd5b61178788828901611683565b60008060408385031215611809578182fd5b611812836115fa565b915060208301358015158114611826578182fd5b809150509250929050565b60008060408385031215611843578182fd5b61184c836115fa565b946020939093013593505050565b6000806040838503121561186c578182fd5b823567ffffffffffffffff80821115611883578384fd5b818501915085601f830112611896578384fd5b813560206118a3826121f5565b6040516118b082826122ee565b8381528281019150858301838502870184018b10156118cd578889fd5b8896505b848710156118f6576118e2816115fa565b8352600196909601959183019183016118d1565b509650508601359250508082111561190c578283fd5b5061191985828601611611565b9150509250929050565b600060208284031215611934578081fd5b813561067181612435565b600060208284031215611950578081fd5b815161067181612435565b60006020828403121561196c578081fd5b813567ffffffffffffffff811115611982578182fd5b8201601f81018413611992578182fd5b610bad8482356020840161159c565b6000602082840312156119b2578081fd5b5035919050565b600080604083850312156119cb578182fd5b823591506116e5602084016115fa565b6000806000606084860312156119ef578081fd5b833592506119ff602085016115fa565b9150604084013590509250925092565b600080600080600060a08688031215611a26578283fd5b8535945060208601359350604086013567ffffffffffffffff811115611a4a578384fd5b611a5688828901611683565b9598949750949560608101359550608001359392505050565b6000815180845260208085019450808401835b83811015611a9e57815187529582019590820190600101611a82565b509495945050505050565b60008151808452611ac1816020860160208601612287565b601f01601f19169290920160200192915050565b60008151611ae7818560208601612287565b9290920192915050565b7f2e6a736f6e000000000000000000000000000000000000000000000000000000815260050190565b8254600090819060028104600180831680611b3657607f831692505b6020808410821415611b5657634e487b7160e01b87526022600452602487fd5b818015611b6a5760018114611b7b57611ba7565b60ff19861689528489019650611ba7565b611b848b612219565b885b86811015611b9f5781548b820152908501908301611b86565b505084890196505b505050505050611bbf611bba8286611ad5565b611af1565b95945050505050565b6001600160a01b0391909116815260200190565b60006001600160a01b03808816835280871660208401525060a06040830152611c0860a0830186611a6f565b8281036060840152611c1a8186611a6f565b90508281036080840152611c2e8185611aa9565b98975050505050505050565b60006001600160a01b03808816835280871660208401525084604083015283606083015260a06080830152611c7260a0830184611aa9565b979650505050505050565b6001600160a01b03929092168252602082015260400190565b6001600160a01b039485168152602081019390935292166040820152606081019190915260800190565b6000602082526106716020830184611a6f565b600060408252611ce66040830185611a6f565b8281036020840152611bbf8185611a6f565b901515815260200190565b6000602082526106716020830184611aa9565b60208082526034908201527f455243313135353a207472616e7366657220746f206e6f6e204552433131353560408201527f526563656976657220696d706c656d656e746572000000000000000000000000606082015260800190565b6020808252602f908201527f455243313135353a2063616c6c6572206973206e6f7420746f6b656e206f776e60408201527f6572206e6f7220617070726f7665640000000000000000000000000000000000606082015260800190565b60208082526028908201527f455243313135353a204552433131353552656365697665722072656a6563746560408201527f6420746f6b656e73000000000000000000000000000000000000000000000000606082015260800190565b60208082526026908201527f4f776e61626c653a206e6577206f776e657220697320746865207a65726f206160408201527f6464726573730000000000000000000000000000000000000000000000000000606082015260800190565b6020808252602a908201527f455243313135353a2061646472657373207a65726f206973206e6f742061207660408201527f616c6964206f776e657200000000000000000000000000000000000000000000606082015260800190565b60208082526025908201527f455243313135353a207472616e7366657220746f20746865207a65726f20616460408201527f6472657373000000000000000000000000000000000000000000000000000000606082015260800190565b6020808252602a908201527f455243313135353a20696e73756666696369656e742062616c616e636520666f60408201527f72207472616e7366657200000000000000000000000000000000000000000000606082015260800190565b6020808252818101527f4f776e61626c653a2063616c6c6572206973206e6f7420746865206f776e6572604082015260600190565b60208082526028908201527f4c6f79616c74792070657263656e74206d757374206265206265747765656e2060408201527f3020616e64203130000000000000000000000000000000000000000000000000606082015260800190565b60208082526016908201527f4e465420616c726561647920696e206c6f79616c747900000000000000000000604082015260600190565b60208082526029908201527f455243313135353a2073657474696e6720617070726f76616c2073746174757360408201527f20666f722073656c660000000000000000000000000000000000000000000000606082015260800190565b60208082526029908201527f455243313135353a206163636f756e747320616e6420696473206c656e67746860408201527f206d69736d617463680000000000000000000000000000000000000000000000606082015260800190565b60208082526028908201527f455243313135353a2069647320616e6420616d6f756e7473206c656e6774682060408201527f6d69736d61746368000000000000000000000000000000000000000000000000606082015260800190565b60208082526021908201527f455243313135353a206d696e7420746f20746865207a65726f2061646472657360408201527f7300000000000000000000000000000000000000000000000000000000000000606082015260800190565b90815260200190565b918252602082015260400190565b600067ffffffffffffffff82111561220f5761220f612376565b5060209081020190565b60009081526020902090565b600082198211156122385761223861234a565b500190565b60008261224c5761224c612360565b500490565b600081600019048311821515161561226b5761226b61234a565b500290565b6000828210156122825761228261234a565b500390565b60005b838110156122a257818101518382015260200161228a565b838111156110ad5750506000910152565b6002810460018216806122c757607f821691505b602082108114156122e857634e487b7160e01b600052602260045260246000fd5b50919050565b601f8201601f1916810167ffffffffffffffff8111828210171561231457612314612376565b6040525050565b600060001982141561232f5761232f61234a565b5060010190565b60008261234557612345612360565b500690565b634e487b7160e01b600052601160045260246000fd5b634e487b7160e01b600052601260045260246000fd5b634e487b7160e01b600052604160045260246000fd5b600060033d111561066257600481823e5160e01c90565b600060443d10156123b357610662565b6040516003193d81016004833e81513d67ffffffffffffffff81602484011181841117156123e5575050505050610662565b82850191508151818111156123ff57505050505050610662565b843d870101602082850101111561241b57505050505050610662565b61242a602082860101876122ee565b509094505050505090565b6001600160e01b0319811681146109d757600080fdfea26469706673582212201b9b877464239fbafe3180ae1aad839937fd75a23925b40d23aded9b257f24f564736f6c6343000801003368747470733a2f2f6574682d6170692e62756c6c7a2e636f6d2f6170692f6e6674732f6974656d2f68747470733a2f2f70726f642d6574682d6170692e62756c6c7a2e636f6d2f6170692f6e6674732f6974656d2f",
  "linkReferences": {},
  "deployedLinkReferences": {}
}