{
  "_format": "hh-sol-artifact-1",
  "contractName": "ERC721Openzeppelin",
  "sourceName": "contracts/erc-721/ERC721Openzeppelin.sol",
  "abi": [
    {
      "inputs": [],
      "stateMutability": "nonpayable",
      "type": "constructor"
    },
    {
      "anonymous": false,
      "inputs": [
        {
          "indexed": true,
          "internalType": "address",
          "name": "owner",
          "type": "address"
        },
        {
          "indexed": true,
          "internalType": "address",
          "name": "approved",
          "type": "address"
        },
        {
          "indexed": true,
          "internalType": "uint256",
          "name": "tokenId",
          "type": "uint256"
        }
      ],
      "name": "Approval",
      "type": "event"
    },
    {
      "anonymous": false,
      "inputs": [
        {
          "indexed": true,
          "internalType": "address",
          "name": "owner",
          "type": "address"
        },
        {
          "indexed": true,
          "internalType": "address",
          "name": "operator",
          "type": "address"
        },
        {
          "indexed": false,
          "internalType": "bool",
          "name": "approved",
          "type": "bool"
        }
      ],
      "name": "ApprovalForAll",
      "type": "event"
    },
    {
      "anonymous": false,
      "inputs": [
        {
          "indexed": true,
          "internalType": "address",
          "name": "from",
          "type": "address"
        },
        {
          "indexed": true,
          "internalType": "address",
          "name": "to",
          "type": "address"
        },
        {
          "indexed": true,
          "internalType": "uint256",
          "name": "tokenId",
          "type": "uint256"
        }
      ],
      "name": "Transfer",
      "type": "event"
    },
    {
      "inputs": [
        {
          "internalType": "address",
          "name": "to",
          "type": "address"
        },
        {
          "internalType": "uint256",
          "name": "tokenId",
          "type": "uint256"
        }
      ],
      "name": "approve",
      "outputs": [],
      "stateMutability": "nonpayable",
      "type": "function"
    },
    {
      "inputs": [
        {
          "internalType": "uint256",
          "name": "newItemId",
          "type": "uint256"
        },
        {
          "internalType": "address",
          "name": "holder",
          "type": "address"
        },
        {
          "internalType": "string",
          "name": "tokenURI",
          "type": "string"
        }
      ],
      "name": "awardItem",
      "outputs": [
        {
          "internalType": "uint256",
          "name": "",
          "type": "uint256"
        }
      ],
      "stateMutability": "nonpayable",
      "type": "function"
    },
    {
      "inputs": [
        {
          "internalType": "address",
          "name": "owner",
          "type": "address"
        }
      ],
      "name": "balanceOf",
      "outputs": [
        {
          "internalType": "uint256",
          "name": "",
          "type": "uint256"
        }
      ],
      "stateMutability": "view",
      "type": "function"
    },
    {
      "inputs": [],
      "name": "baseURI",
      "outputs": [
        {
          "internalType": "string",
          "name": "",
          "type": "string"
        }
      ],
      "stateMutability": "view",
      "type": "function"
    },
    {
      "inputs": [
        {
          "internalType": "uint256",
          "name": "tokenId",
          "type": "uint256"
        }
      ],
      "name": "getApproved",
      "outputs": [
        {
          "internalType": "address",
          "name": "",
          "type": "address"
        }
      ],
      "stateMutability": "view",
      "type": "function"
    },
    {
      "inputs": [
        {
          "internalType": "address",
          "name": "owner",
          "type": "address"
        },
        {
          "internalType": "address",
          "name": "operator",
          "type": "address"
        }
      ],
      "name": "isApprovedForAll",
      "outputs": [
        {
          "internalType": "bool",
          "name": "",
          "type": "bool"
        }
      ],
      "stateMutability": "view",
      "type": "function"
    },
    {
      "inputs": [],
      "name": "name",
      "outputs": [
        {
          "internalType": "string",
          "name": "",
          "type": "string"
        }
      ],
      "stateMutability": "view",
      "type": "function"
    },
    {
      "inputs": [
        {
          "internalType": "uint256",
          "name": "tokenId",
          "type": "uint256"
        }
      ],
      "name": "ownerOf",
      "outputs": [
        {
          "internalType": "address",
          "name": "",
          "type": "address"
        }
      ],
      "stateMutability": "view",
      "type": "function"
    },
    {
      "inputs": [
        {
          "internalType": "address",
          "name": "from",
          "type": "address"
        },
        {
          "internalType": "address",
          "name": "to",
          "type": "address"
        },
        {
          "internalType": "uint256",
          "name": "tokenId",
          "type": "uint256"
        }
      ],
      "name": "safeTransferFrom",
      "outputs": [],
      "stateMutability": "nonpayable",
      "type": "function"
    },
    {
      "inputs": [
        {
          "internalType": "address",
          "name": "from",
          "type": "address"
        },
        {
          "internalType": "address",
          "name": "to",
          "type": "address"
        },
        {
          "internalType": "uint256",
          "name": "tokenId",
          "type": "uint256"
        },
        {
          "internalType": "bytes",
          "name": "_data",
          "type": "bytes"
        }
      ],
      "name": "safeTransferFrom",
      "outputs": [],
      "stateMutability": "nonpayable",
      "type": "function"
    },
    {
      "inputs": [
        {
          "internalType": "address",
          "name": "operator",
          "type": "address"
        },
        {
          "internalType": "bool",
          "name": "approved",
          "type": "bool"
        }
      ],
      "name": "setApprovalForAll",
      "outputs": [],
      "stateMutability": "nonpayable",
      "type": "function"
    },
    {
      "inputs": [
        {
          "internalType": "bytes4",
          "name": "interfaceId",
          "type": "bytes4"
        }
      ],
      "name": "supportsInterface",
      "outputs": [
        {
          "internalType": "bool",
          "name": "",
          "type": "bool"
        }
      ],
      "stateMutability": "view",
      "type": "function"
    },
    {
      "inputs": [],
      "name": "symbol",
      "outputs": [
        {
          "internalType": "string",
          "name": "",
          "type": "string"
        }
      ],
      "stateMutability": "view",
      "type": "function"
    },
    {
      "inputs": [
        {
          "internalType": "uint256",
          "name": "index",
          "type": "uint256"
        }
      ],
      "name": "tokenByIndex",
      "outputs": [
        {
          "internalType": "uint256",
          "name": "",
          "type": "uint256"
        }
      ],
      "stateMutability": "view",
      "type": "function"
    },
    {
      "inputs": [
        {
          "internalType": "address",
          "name": "owner",
          "type": "address"
        },
        {
          "internalType": "uint256",
          "name": "index",
          "type": "uint256"
        }
      ],
      "name": "tokenOfOwnerByIndex",
      "outputs": [
        {
          "internalType": "uint256",
          "name": "",
          "type": "uint256"
        }
      ],
      "stateMutability": "view",
      "type": "function"
    },
    {
      "inputs": [
        {
          "internalType": "uint256",
          "name": "tokenId",
          "type": "uint256"
        }
      ],
      "name": "tokenURI",
      "outputs": [
        {
          "internalType": "string",
          "name": "",
          "type": "string"
        }
      ],
      "stateMutability": "view",
      "type": "function"
    },
    {
      "inputs": [],
      "name": "totalSupply",
      "outputs": [
        {
          "internalType": "uint256",
          "name": "",
          "type": "uint256"
        }
      ],
      "stateMutability": "view",
      "type": "function"
    },
    {
      "inputs": [
        {
          "internalType": "address",
          "name": "from",
          "type": "address"
        },
        {
          "internalType": "address",
          "name": "to",
          "type": "address"
        },
        {
          "internalType": "uint256",
          "name": "tokenId",
          "type": "uint256"
        }
      ],
      "name": "transferFrom",
      "outputs": [],
      "stateMutability": "nonpayable",
      "type": "function"
    }
  ],
  "bytecode": "0x60806040523480156200001157600080fd5b506040518060400160405280600b81526020017f594141415320544f4b454e0000000000000000000000000000000000000000008152506040518060400160405280600381526020017f4959530000000000000000000000000000000000000000000000000000000000815250620000966301ffc9a760e01b6200011860201b60201c565b8160069080519060200190620000ae92919062000221565b508060079080519060200190620000c792919062000221565b50620000e06380ac58cd60e01b6200011860201b60201c565b620000f8635b5e139f60e01b6200011860201b60201c565b6200011063780e9d6360e01b6200011860201b60201c565b5050620002c7565b63ffffffff60e01b817bffffffffffffffffffffffffffffffffffffffffffffffffffffffff19161415620001b5576040517f08c379a000000000000000000000000000000000000000000000000000000000815260040180806020018281038252601c8152602001807f4552433136353a20696e76616c696420696e746572666163652069640000000081525060200191505060405180910390fd5b6001600080837bffffffffffffffffffffffffffffffffffffffffffffffffffffffff19167bffffffffffffffffffffffffffffffffffffffffffffffffffffffff1916815260200190815260200160002060006101000a81548160ff02191690831515021790555050565b828054600181600116156101000203166002900490600052602060002090601f016020900481019282601f106200026457805160ff191683800117855562000295565b8280016001018555821562000295579182015b828111156200029457825182559160200191906001019062000277565b5b509050620002a49190620002a8565b5090565b5b80821115620002c3576000816000905550600101620002a9565b5090565b612b9080620002d76000396000f3fe608060405234801561001057600080fd5b50600436106101165760003560e01c8063590c6cff116100a257806395d89b411161007157806395d89b4114610671578063a22cb465146106f4578063b88d4fde14610744578063c87b56dd14610849578063e985e9c5146108f057610116565b8063590c6cff146104455780636352211e1461053e5780636c0360eb1461059657806370a082311461061957610116565b806318160ddd116100e957806318160ddd146102a757806323b872dd146102c55780632f745c591461033357806342842e0e146103955780634f6ccce71461040357610116565b806301ffc9a71461011b57806306fdde031461017e578063081812fc14610201578063095ea7b314610259575b600080fd5b6101666004803603602081101561013157600080fd5b8101908080357bffffffffffffffffffffffffffffffffffffffffffffffffffffffff1916906020019092919050505061096a565b60405180821515815260200191505060405180910390f35b6101866109d1565b6040518080602001828103825283818151815260200191508051906020019080838360005b838110156101c65780820151818401526020810190506101ab565b50505050905090810190601f1680156101f35780820380516001836020036101000a031916815260200191505b509250505060405180910390f35b61022d6004803603602081101561021757600080fd5b8101908080359060200190929190505050610a73565b604051808273ffffffffffffffffffffffffffffffffffffffff16815260200191505060405180910390f35b6102a56004803603604081101561026f57600080fd5b81019080803573ffffffffffffffffffffffffffffffffffffffff16906020019092919080359060200190929190505050610b0e565b005b6102af610c52565b6040518082815260200191505060405180910390f35b610331600480360360608110156102db57600080fd5b81019080803573ffffffffffffffffffffffffffffffffffffffff169060200190929190803573ffffffffffffffffffffffffffffffffffffffff16906020019092919080359060200190929190505050610c63565b005b61037f6004803603604081101561034957600080fd5b81019080803573ffffffffffffffffffffffffffffffffffffffff16906020019092919080359060200190929190505050610cd9565b6040518082815260200191505060405180910390f35b610401600480360360608110156103ab57600080fd5b81019080803573ffffffffffffffffffffffffffffffffffffffff169060200190929190803573ffffffffffffffffffffffffffffffffffffffff16906020019092919080359060200190929190505050610d34565b005b61042f6004803603602081101561041957600080fd5b8101908080359060200190929190505050610d54565b6040518082815260200191505060405180910390f35b6105286004803603606081101561045b57600080fd5b8101908080359060200190929190803573ffffffffffffffffffffffffffffffffffffffff169060200190929190803590602001906401000000008111156104a257600080fd5b8201836020820111156104b457600080fd5b803590602001918460018302840111640100000000831117156104d657600080fd5b91908080601f016020809104026020016040519081016040528093929190818152602001838380828437600081840152601f19601f820116905080830192505050505050509192919290505050610d77565b6040518082815260200191505060405180910390f35b61056a6004803603602081101561055457600080fd5b8101908080359060200190929190505050610d97565b604051808273ffffffffffffffffffffffffffffffffffffffff16815260200191505060405180910390f35b61059e610dce565b6040518080602001828103825283818151815260200191508051906020019080838360005b838110156105de5780820151818401526020810190506105c3565b50505050905090810190601f16801561060b5780820380516001836020036101000a031916815260200191505b509250505060405180910390f35b61065b6004803603602081101561062f57600080fd5b81019080803573ffffffffffffffffffffffffffffffffffffffff169060200190929190505050610e70565b6040518082815260200191505060405180910390f35b610679610f45565b6040518080602001828103825283818151815260200191508051906020019080838360005b838110156106b957808201518184015260208101905061069e565b50505050905090810190601f1680156106e65780820380516001836020036101000a031916815260200191505b509250505060405180910390f35b6107426004803603604081101561070a57600080fd5b81019080803573ffffffffffffffffffffffffffffffffffffffff169060200190929190803515159060200190929190505050610fe7565b005b6108476004803603608081101561075a57600080fd5b81019080803573ffffffffffffffffffffffffffffffffffffffff169060200190929190803573ffffffffffffffffffffffffffffffffffffffff16906020019092919080359060200190929190803590602001906401000000008111156107c157600080fd5b8201836020820111156107d357600080fd5b803590602001918460018302840111640100000000831117156107f557600080fd5b91908080601f016020809104026020016040519081016040528093929190818152602001838380828437600081840152601f19601f82011690508083019250505050505050919291929050505061119d565b005b6108756004803603602081101561085f57600080fd5b8101908080359060200190929190505050611215565b6040518080602001828103825283818151815260200191508051906020019080838360005b838110156108b557808201518184015260208101905061089a565b50505050905090810190601f1680156108e25780820380516001836020036101000a031916815260200191505b509250505060405180910390f35b6109526004803603604081101561090657600080fd5b81019080803573ffffffffffffffffffffffffffffffffffffffff169060200190929190803573ffffffffffffffffffffffffffffffffffffffff1690602001909291905050506114e6565b60405180821515815260200191505060405180910390f35b6000806000837bffffffffffffffffffffffffffffffffffffffffffffffffffffffff19167bffffffffffffffffffffffffffffffffffffffffffffffffffffffff1916815260200190815260200160002060009054906101000a900460ff169050919050565b606060068054600181600116156101000203166002900480601f016020809104026020016040519081016040528092919081815260200182805460018160011615610100020316600290048015610a695780601f10610a3e57610100808354040283529160200191610a69565b820191906000526020600020905b815481529060010190602001808311610a4c57829003601f168201915b5050505050905090565b6000610a7e8261157a565b610ad3576040517f08c379a000000000000000000000000000000000000000000000000000000000815260040180806020018281038252602c815260200180612a59602c913960400191505060405180910390fd5b6004600083815260200190815260200160002060009054906101000a900473ffffffffffffffffffffffffffffffffffffffff169050919050565b6000610b1982610d97565b90508073ffffffffffffffffffffffffffffffffffffffff168373ffffffffffffffffffffffffffffffffffffffff161415610ba0576040517f08c379a0000000000000000000000000000000000000000000000000000000008152600401808060200182810382526021815260200180612b096021913960400191505060405180910390fd5b8073ffffffffffffffffffffffffffffffffffffffff16610bbf611597565b73ffffffffffffffffffffffffffffffffffffffff161480610bee5750610bed81610be8611597565b6114e6565b5b610c43576040517f08c379a00000000000000000000000000000000000000000000000000000000081526004018080602001828103825260388152602001806129ac6038913960400191505060405180910390fd5b610c4d838361159f565b505050565b6000610c5e6002611658565b905090565b610c74610c6e611597565b8261166d565b610cc9576040517f08c379a0000000000000000000000000000000000000000000000000000000008152600401808060200182810382526031815260200180612b2a6031913960400191505060405180910390fd5b610cd4838383611761565b505050565b6000610d2c82600160008673ffffffffffffffffffffffffffffffffffffffff1673ffffffffffffffffffffffffffffffffffffffff1681526020019081526020016000206119a490919063ffffffff16565b905092915050565b610d4f8383836040518060200160405280600081525061119d565b505050565b600080610d6b8360026119be90919063ffffffff16565b50905080915050919050565b6000610d8383856119ea565b610d8d8483611bde565b8390509392505050565b6000610dc782604051806060016040528060298152602001612a0e602991396002611c689092919063ffffffff16565b9050919050565b606060098054600181600116156101000203166002900480601f016020809104026020016040519081016040528092919081815260200182805460018160011615610100020316600290048015610e665780601f10610e3b57610100808354040283529160200191610e66565b820191906000526020600020905b815481529060010190602001808311610e4957829003601f168201915b5050505050905090565b60008073ffffffffffffffffffffffffffffffffffffffff168273ffffffffffffffffffffffffffffffffffffffff161415610ef7576040517f08c379a000000000000000000000000000000000000000000000000000000000815260040180806020018281038252602a8152602001806129e4602a913960400191505060405180910390fd5b610f3e600160008473ffffffffffffffffffffffffffffffffffffffff1673ffffffffffffffffffffffffffffffffffffffff168152602001908152602001600020611c87565b9050919050565b606060078054600181600116156101000203166002900480601f016020809104026020016040519081016040528092919081815260200182805460018160011615610100020316600290048015610fdd5780601f10610fb257610100808354040283529160200191610fdd565b820191906000526020600020905b815481529060010190602001808311610fc057829003601f168201915b5050505050905090565b610fef611597565b73ffffffffffffffffffffffffffffffffffffffff168273ffffffffffffffffffffffffffffffffffffffff161415611090576040517f08c379a00000000000000000000000000000000000000000000000000000000081526004018080602001828103825260198152602001807f4552433732313a20617070726f766520746f2063616c6c65720000000000000081525060200191505060405180910390fd5b806005600061109d611597565b73ffffffffffffffffffffffffffffffffffffffff1673ffffffffffffffffffffffffffffffffffffffff16815260200190815260200160002060008473ffffffffffffffffffffffffffffffffffffffff1673ffffffffffffffffffffffffffffffffffffffff16815260200190815260200160002060006101000a81548160ff0219169083151502179055508173ffffffffffffffffffffffffffffffffffffffff1661114a611597565b73ffffffffffffffffffffffffffffffffffffffff167f17307eab39ab6107e8899845ad3d59bd9653f200f220920489ca2b5937696c318360405180821515815260200191505060405180910390a35050565b6111ae6111a8611597565b8361166d565b611203576040517f08c379a0000000000000000000000000000000000000000000000000000000008152600401808060200182810382526031815260200180612b2a6031913960400191505060405180910390fd5b61120f84848484611c9c565b50505050565b60606112208261157a565b611275576040517f08c379a000000000000000000000000000000000000000000000000000000000815260040180806020018281038252602f815260200180612ada602f913960400191505060405180910390fd5b6060600860008481526020019081526020016000208054600181600116156101000203166002900480601f01602080910402602001604051908101604052809291908181526020018280546001816001161561010002031660029004801561131e5780601f106112f35761010080835404028352916020019161131e565b820191906000526020600020905b81548152906001019060200180831161130157829003601f168201915b50505050509050606061132f610dce565b90506000815114156113455781925050506114e1565b6000825111156114165780826040516020018083805190602001908083835b602083106113875780518252602082019150602081019050602083039250611364565b6001836020036101000a03801982511681845116808217855250505050505090500182805190602001908083835b602083106113d857805182526020820191506020810190506020830392506113b5565b6001836020036101000a03801982511681845116808217855250505050505090500192505050604051602081830303815290604052925050506114e1565b8061142085611d0e565b6040516020018083805190602001908083835b602083106114565780518252602082019150602081019050602083039250611433565b6001836020036101000a03801982511681845116808217855250505050505090500182805190602001908083835b602083106114a75780518252602082019150602081019050602083039250611484565b6001836020036101000a03801982511681845116808217855250505050505090500192505050604051602081830303815290604052925050505b919050565b6000600560008473ffffffffffffffffffffffffffffffffffffffff1673ffffffffffffffffffffffffffffffffffffffff16815260200190815260200160002060008373ffffffffffffffffffffffffffffffffffffffff1673ffffffffffffffffffffffffffffffffffffffff16815260200190815260200160002060009054906101000a900460ff16905092915050565b6000611590826002611e5590919063ffffffff16565b9050919050565b600033905090565b816004600083815260200190815260200160002060006101000a81548173ffffffffffffffffffffffffffffffffffffffff021916908373ffffffffffffffffffffffffffffffffffffffff160217905550808273ffffffffffffffffffffffffffffffffffffffff1661161283610d97565b73ffffffffffffffffffffffffffffffffffffffff167f8c5be1e5ebec7d5bd14f71427d1e84f3dd0314c0f7b2291e5b200ac8c7c3b92560405160405180910390a45050565b600061166682600001611e6f565b9050919050565b60006116788261157a565b6116cd576040517f08c379a000000000000000000000000000000000000000000000000000000000815260040180806020018281038252602c815260200180612980602c913960400191505060405180910390fd5b60006116d883610d97565b90508073ffffffffffffffffffffffffffffffffffffffff168473ffffffffffffffffffffffffffffffffffffffff16148061174757508373ffffffffffffffffffffffffffffffffffffffff1661172f84610a73565b73ffffffffffffffffffffffffffffffffffffffff16145b80611758575061175781856114e6565b5b91505092915050565b8273ffffffffffffffffffffffffffffffffffffffff1661178182610d97565b73ffffffffffffffffffffffffffffffffffffffff16146117ed576040517f08c379a0000000000000000000000000000000000000000000000000000000008152600401808060200182810382526029815260200180612ab16029913960400191505060405180910390fd5b600073ffffffffffffffffffffffffffffffffffffffff168273ffffffffffffffffffffffffffffffffffffffff161415611873576040517f08c379a00000000000000000000000000000000000000000000000000000000081526004018080602001828103825260248152602001806129366024913960400191505060405180910390fd5b61187e838383611e80565b61188960008261159f565b6118da81600160008673ffffffffffffffffffffffffffffffffffffffff1673ffffffffffffffffffffffffffffffffffffffff168152602001908152602001600020611e8590919063ffffffff16565b5061192c81600160008573ffffffffffffffffffffffffffffffffffffffff1673ffffffffffffffffffffffffffffffffffffffff168152602001908152602001600020611e9f90919063ffffffff16565b5061194381836002611eb99092919063ffffffff16565b50808273ffffffffffffffffffffffffffffffffffffffff168473ffffffffffffffffffffffffffffffffffffffff167fddf252ad1be2c89b69c2b068fc378daa952ba7f163c4a11628f55a4df523b3ef60405160405180910390a4505050565b60006119b38360000183611eee565b60001c905092915050565b6000806000806119d18660000186611f71565b915091508160001c8160001c9350935050509250929050565b600073ffffffffffffffffffffffffffffffffffffffff168273ffffffffffffffffffffffffffffffffffffffff161415611a8d576040517f08c379a00000000000000000000000000000000000000000000000000000000081526004018080602001828103825260208152602001807f4552433732313a206d696e7420746f20746865207a65726f206164647265737381525060200191505060405180910390fd5b611a968161157a565b15611b09576040517f08c379a000000000000000000000000000000000000000000000000000000000815260040180806020018281038252601c8152602001807f4552433732313a20746f6b656e20616c7265616479206d696e7465640000000081525060200191505060405180910390fd5b611b1560008383611e80565b611b6681600160008573ffffffffffffffffffffffffffffffffffffffff1673ffffffffffffffffffffffffffffffffffffffff168152602001908152602001600020611e9f90919063ffffffff16565b50611b7d81836002611eb99092919063ffffffff16565b50808273ffffffffffffffffffffffffffffffffffffffff16600073ffffffffffffffffffffffffffffffffffffffff167fddf252ad1be2c89b69c2b068fc378daa952ba7f163c4a11628f55a4df523b3ef60405160405180910390a45050565b611be78261157a565b611c3c576040517f08c379a000000000000000000000000000000000000000000000000000000000815260040180806020018281038252602c815260200180612a85602c913960400191505060405180910390fd5b80600860008481526020019081526020016000209080519060200190611c63929190612844565b505050565b6000611c7b846000018460001b8461200a565b60001c90509392505050565b6000611c9582600001612100565b9050919050565b611ca7848484611761565b611cb384848484612111565b611d08576040517f08c379a00000000000000000000000000000000000000000000000000000000081526004018080602001828103825260328152602001806129046032913960400191505060405180910390fd5b50505050565b60606000821415611d56576040518060400160405280600181526020017f30000000000000000000000000000000000000000000000000000000000000008152509050611e50565b600082905060005b60008214611d80578080600101915050600a8281611d7857fe5b049150611d5e565b60608167ffffffffffffffff81118015611d9957600080fd5b506040519080825280601f01601f191660200182016040528015611dcc5781602001600182028036833780820191505090505b50905060006001830390508593505b60008414611e4857600a8481611ded57fe5b0660300160f81b82828060019003935081518110611e0757fe5b60200101907effffffffffffffffffffffffffffffffffffffffffffffffffffffffffffff1916908160001a905350600a8481611e4057fe5b049350611ddb565b819450505050505b919050565b6000611e67836000018360001b61232a565b905092915050565b600081600001805490509050919050565b505050565b6000611e97836000018360001b61234d565b905092915050565b6000611eb1836000018360001b612435565b905092915050565b6000611ee5846000018460001b8473ffffffffffffffffffffffffffffffffffffffff1660001b6124a5565b90509392505050565b600081836000018054905011611f4f576040517f08c379a00000000000000000000000000000000000000000000000000000000081526004018080602001828103825260228152602001806128e26022913960400191505060405180910390fd5b826000018281548110611f5e57fe5b9060005260206000200154905092915050565b60008082846000018054905011611fd3576040517f08c379a0000000000000000000000000000000000000000000000000000000008152600401808060200182810382526022815260200180612a376022913960400191505060405180910390fd5b6000846000018481548110611fe457fe5b906000526020600020906002020190508060000154816001015492509250509250929050565b600080846001016000858152602001908152602001600020549050600081141583906120d1576040517f08c379a00000000000000000000000000000000000000000000000000000000081526004018080602001828103825283818151815260200191508051906020019080838360005b8381101561209657808201518184015260208101905061207b565b50505050905090810190601f1680156120c35780820380516001836020036101000a031916815260200191505b509250505060405180910390fd5b508460000160018203815481106120e457fe5b9060005260206000209060020201600101549150509392505050565b600081600001805490509050919050565b60006121328473ffffffffffffffffffffffffffffffffffffffff16612581565b61213f5760019050612322565b60606122a963150b7a0260e01b612154611597565b888787604051602401808573ffffffffffffffffffffffffffffffffffffffff1681526020018473ffffffffffffffffffffffffffffffffffffffff16815260200183815260200180602001828103825283818151815260200191508051906020019080838360005b838110156121d85780820151818401526020810190506121bd565b50505050905090810190601f1680156122055780820380516001836020036101000a031916815260200191505b5095505050505050604051602081830303815290604052907bffffffffffffffffffffffffffffffffffffffffffffffffffffffff19166020820180517bffffffffffffffffffffffffffffffffffffffffffffffffffffffff8381831617835250505050604051806060016040528060328152602001612904603291398773ffffffffffffffffffffffffffffffffffffffff166125949092919063ffffffff16565b905060008180602001905160208110156122c257600080fd5b8101908080519060200190929190505050905063150b7a0260e01b7bffffffffffffffffffffffffffffffffffffffffffffffffffffffff1916817bffffffffffffffffffffffffffffffffffffffffffffffffffffffff191614925050505b949350505050565b600080836001016000848152602001908152602001600020541415905092915050565b60008083600101600084815260200190815260200160002054905060008114612429576000600182039050600060018660000180549050039050600086600001828154811061239857fe5b90600052602060002001549050808760000184815481106123b557fe5b90600052602060002001819055506001830187600101600083815260200190815260200160002081905550866000018054806123ed57fe5b6001900381819060005260206000200160009055905586600101600087815260200190815260200160002060009055600194505050505061242f565b60009150505b92915050565b600061244183836125ac565b61249a57826000018290806001815401808255809150506001900390600052602060002001600090919091909150558260000180549050836001016000848152602001908152602001600020819055506001905061249f565b600090505b92915050565b600080846001016000858152602001908152602001600020549050600081141561254c5784600001604051806040016040528086815260200185815250908060018154018082558091505060019003906000526020600020906002020160009091909190915060008201518160000155602082015181600101555050846000018054905085600101600086815260200190815260200160002081905550600191505061257a565b8285600001600183038154811061255f57fe5b90600052602060002090600202016001018190555060009150505b9392505050565b600080823b905060008111915050919050565b60606125a384846000856125cf565b90509392505050565b600080836001016000848152602001908152602001600020541415905092915050565b60608247101561262a576040517f08c379a000000000000000000000000000000000000000000000000000000000815260040180806020018281038252602681526020018061295a6026913960400191505060405180910390fd5b61263385612581565b6126a5576040517f08c379a000000000000000000000000000000000000000000000000000000000815260040180806020018281038252601d8152602001807f416464726573733a2063616c6c20746f206e6f6e2d636f6e747261637400000081525060200191505060405180910390fd5b600060608673ffffffffffffffffffffffffffffffffffffffff1685876040518082805190602001908083835b602083106126f557805182526020820191506020810190506020830392506126d2565b6001836020036101000a03801982511681845116808217855250505050505090500191505060006040518083038185875af1925050503d8060008114612757576040519150601f19603f3d011682016040523d82523d6000602084013e61275c565b606091505b509150915061276c828286612778565b92505050949350505050565b606083156127885782905061283d565b60008351111561279b5782518084602001fd5b816040517f08c379a00000000000000000000000000000000000000000000000000000000081526004018080602001828103825283818151815260200191508051906020019080838360005b838110156128025780820151818401526020810190506127e7565b50505050905090810190601f16801561282f5780820380516001836020036101000a031916815260200191505b509250505060405180910390fd5b9392505050565b828054600181600116156101000203166002900490600052602060002090601f016020900481019282601f1061288557805160ff19168380011785556128b3565b828001600101855582156128b3579182015b828111156128b2578251825591602001919060010190612897565b5b5090506128c091906128c4565b5090565b5b808211156128dd5760008160009055506001016128c5565b509056fe456e756d657261626c655365743a20696e646578206f7574206f6620626f756e64734552433732313a207472616e7366657220746f206e6f6e20455243373231526563656976657220696d706c656d656e7465724552433732313a207472616e7366657220746f20746865207a65726f2061646472657373416464726573733a20696e73756666696369656e742062616c616e636520666f722063616c6c4552433732313a206f70657261746f7220717565727920666f72206e6f6e6578697374656e7420746f6b656e4552433732313a20617070726f76652063616c6c6572206973206e6f74206f776e6572206e6f7220617070726f76656420666f7220616c6c4552433732313a2062616c616e636520717565727920666f7220746865207a65726f20616464726573734552433732313a206f776e657220717565727920666f72206e6f6e6578697374656e7420746f6b656e456e756d657261626c654d61703a20696e646578206f7574206f6620626f756e64734552433732313a20617070726f76656420717565727920666f72206e6f6e6578697374656e7420746f6b656e4552433732314d657461646174613a2055524920736574206f66206e6f6e6578697374656e7420746f6b656e4552433732313a207472616e73666572206f6620746f6b656e2074686174206973206e6f74206f776e4552433732314d657461646174613a2055524920717565727920666f72206e6f6e6578697374656e7420746f6b656e4552433732313a20617070726f76616c20746f2063757272656e74206f776e65724552433732313a207472616e736665722063616c6c6572206973206e6f74206f776e6572206e6f7220617070726f766564a2646970667358221220cdec1f165a208b97f7fe1d2f7aaf75bac1aa0d9f9a660c9ef738687c440330c064736f6c63430007030033",
  "linkReferences": {},
  "deployedLinkReferences": {}
}